{
  "_format": "hh-sol-artifact-1",
  "contractName": "WavePortal",
  "sourceName": "contracts/WavePortal.sol",
  "abi": [
    {
      "inputs": [],
      "stateMutability": "payable",
      "type": "constructor"
    },
    {
      "anonymous": false,
      "inputs": [
        {
          "indexed": true,
          "internalType": "address",
          "name": "from",
          "type": "address"
        },
        {
          "indexed": false,
          "internalType": "uint256",
          "name": "timestamp",
          "type": "uint256"
        },
        {
          "indexed": false,
          "internalType": "string",
          "name": "message",
          "type": "string"
        },
        {
          "indexed": false,
          "internalType": "bool",
          "name": "done",
          "type": "bool"
        }
      ],
      "name": "NewWave",
      "type": "event"
    },
    {
      "inputs": [
        {
          "internalType": "uint256",
          "name": "id",
          "type": "uint256"
        }
      ],
      "name": "doneIt",
      "outputs": [],
      "stateMutability": "nonpayable",
      "type": "function"
    },
    {
      "inputs": [],
      "name": "getAllWaves",
      "outputs": [
        {
          "components": [
            {
              "internalType": "uint256",
              "name": "id",
              "type": "uint256"
            },
            {
              "internalType": "address",
              "name": "waver",
              "type": "address"
            },
            {
              "internalType": "string",
              "name": "message",
              "type": "string"
            },
            {
              "internalType": "uint256",
              "name": "timestamp",
              "type": "uint256"
            },
            {
              "internalType": "bool",
              "name": "done",
              "type": "bool"
            }
          ],
          "internalType": "struct WavePortal.Wave[]",
          "name": "",
          "type": "tuple[]"
        }
      ],
      "stateMutability": "view",
      "type": "function"
    },
    {
      "inputs": [],
      "name": "getTotalWaves",
      "outputs": [
        {
          "internalType": "uint256",
          "name": "",
          "type": "uint256"
        }
      ],
      "stateMutability": "view",
      "type": "function"
    },
    {
      "inputs": [
        {
          "internalType": "address",
          "name": "",
          "type": "address"
        }
      ],
      "name": "lastWavedAt",
      "outputs": [
        {
          "internalType": "uint256",
          "name": "",
          "type": "uint256"
        }
      ],
      "stateMutability": "view",
      "type": "function"
    },
    {
      "inputs": [
        {
          "internalType": "string",
          "name": "_message",
          "type": "string"
        }
      ],
      "name": "wave",
      "outputs": [],
      "stateMutability": "nonpayable",
      "type": "function"
    }
  ],
  "bytecode": "0x60806040526200004f6040518060400160405280601981526020017f57652068617665206265656e20636f6e737472756374656421000000000000008152506200007760201b620007061760201c565b606444426200005f91906200017c565b6200006b9190620001e6565b600181905550620002dc565b62000117816040516024016200008e9190620002b8565b6040516020818303038152906040527f41304fac000000000000000000000000000000000000000000000000000000007bffffffffffffffffffffffffffffffffffffffffffffffffffffffff19166020820180517bffffffffffffffffffffffffffffffffffffffffffffffffffffffff83818316178352505050506200011a60201b60201c565b50565b60008151905060006a636f6e736f6c652e6c6f679050602083016000808483855afa5050505050565b6000819050919050565b7f4e487b7100000000000000000000000000000000000000000000000000000000600052601160045260246000fd5b6000620001898262000143565b9150620001968362000143565b9250828201905080821115620001b157620001b06200014d565b5b92915050565b7f4e487b7100000000000000000000000000000000000000000000000000000000600052601260045260246000fd5b6000620001f38262000143565b9150620002008362000143565b925082620002135762000212620001b7565b5b828206905092915050565b600081519050919050565b600082825260208201905092915050565b60005b838110156200025a5780820151818401526020810190506200023d565b60008484015250505050565b6000601f19601f8301169050919050565b600062000284826200021e565b62000290818562000229565b9350620002a28185602086016200023a565b620002ad8162000266565b840191505092915050565b60006020820190508181036000830152620002d4818462000277565b905092915050565b61145f80620002ec6000396000f3fe608060405234801561001057600080fd5b50600436106100575760003560e01c8063449d46c01461005c5780636c953921146100785780639a2cdc0814610094578063a42a4663146100b2578063bd43a908146100e2575b600080fd5b610076600480360381019061007191906109be565b610100565b005b610092600480360381019061008d9190610a3d565b610463565b005b61009c61056f565b6040516100a99190610a79565b60405180910390f35b6100cc60048036038101906100c79190610af2565b610578565b6040516100d99190610a79565b60405180910390f35b6100ea610590565b6040516100f79190610d0f565b60405180910390f35b42600360003373ffffffffffffffffffffffffffffffffffffffff1673ffffffffffffffffffffffffffffffffffffffff1681526020019081526020016000208190555060016000808282546101569190610d60565b9250508190555061019c6040518060400160405280600d81526020017f25732068617320776176656421000000000000000000000000000000000000008152503361079f565b60026040518060a0016040528060005481526020013373ffffffffffffffffffffffffffffffffffffffff1681526020018381526020014281526020016000151581525090806001815401808255809150506001900390600052602060002090600502016000909190919091506000820151816000015560208201518160010160006101000a81548173ffffffffffffffffffffffffffffffffffffffff021916908373ffffffffffffffffffffffffffffffffffffffff160217905550604082015181600201908161026f9190610fa0565b506060820151816003015560808201518160040160006101000a81548160ff0219169083151502179055505050606460015442446102ad9190610d60565b6102b79190610d60565b6102c191906110a1565b60018190555060326001541161040d576103106040518060400160405280600781526020017f257320776f6e21000000000000000000000000000000000000000000000000008152503361079f565b6000655af3107a400090504781111561035e576040517f08c379a000000000000000000000000000000000000000000000000000000000815260040161035590611155565b60405180910390fd5b60003373ffffffffffffffffffffffffffffffffffffffff1682604051610384906111a6565b60006040518083038185875af1925050503d80600081146103c1576040519150601f19603f3d011682016040523d82523d6000602084013e6103c6565b606091505b505090508061040a576040517f08c379a00000000000000000000000000000000000000000000000000000000081526004016104019061122d565b60405180910390fd5b50505b3373ffffffffffffffffffffffffffffffffffffffff167f6d1607feb02544462392cd79bc9fc3cea2a1dd50600d5b503009b84ae27748ca4283600060405161045893929190611295565b60405180910390a250565b600260018261047291906112d3565b8154811061048357610482611307565b5b906000526020600020906005020160010160009054906101000a900473ffffffffffffffffffffffffffffffffffffffff1673ffffffffffffffffffffffffffffffffffffffff163373ffffffffffffffffffffffffffffffffffffffff1614610522576040517f08c379a0000000000000000000000000000000000000000000000000000000008152600401610519906113a8565b60405180910390fd5b6001600260018361053391906112d3565b8154811061054457610543611307565b5b906000526020600020906005020160040160006101000a81548160ff02191690831515021790555050565b60008054905090565b60036020528060005260406000206000915090505481565b60606002805480602002602001604051908101604052809291908181526020016000905b828210156106fd57838290600052602060002090600502016040518060a0016040529081600082015481526020016001820160009054906101000a900473ffffffffffffffffffffffffffffffffffffffff1673ffffffffffffffffffffffffffffffffffffffff1673ffffffffffffffffffffffffffffffffffffffff16815260200160028201805461064790610dc3565b80601f016020809104026020016040519081016040528092919081815260200182805461067390610dc3565b80156106c05780601f10610695576101008083540402835291602001916106c0565b820191906000526020600020905b8154815290600101906020018083116106a357829003601f168201915b50505050508152602001600382015481526020016004820160009054906101000a900460ff161515151581525050815260200190600101906105b4565b50505050905090565b61079c8160405160240161071a91906113c8565b6040516020818303038152906040527f41304fac000000000000000000000000000000000000000000000000000000007bffffffffffffffffffffffffffffffffffffffffffffffffffffffff19166020820180517bffffffffffffffffffffffffffffffffffffffffffffffffffffffff838183161783525050505061083b565b50565b61083782826040516024016107b59291906113f9565b6040516020818303038152906040527f319af333000000000000000000000000000000000000000000000000000000007bffffffffffffffffffffffffffffffffffffffffffffffffffffffff19166020820180517bffffffffffffffffffffffffffffffffffffffffffffffffffffffff838183161783525050505061083b565b5050565b60008151905060006a636f6e736f6c652e6c6f679050602083016000808483855afa5050505050565b6000604051905090565b600080fd5b600080fd5b600080fd5b600080fd5b6000601f19601f8301169050919050565b7f4e487b7100000000000000000000000000000000000000000000000000000000600052604160045260246000fd5b6108cb82610882565b810181811067ffffffffffffffff821117156108ea576108e9610893565b5b80604052505050565b60006108fd610864565b905061090982826108c2565b919050565b600067ffffffffffffffff82111561092957610928610893565b5b61093282610882565b9050602081019050919050565b82818337600083830152505050565b600061096161095c8461090e565b6108f3565b90508281526020810184848401111561097d5761097c61087d565b5b61098884828561093f565b509392505050565b600082601f8301126109a5576109a4610878565b5b81356109b584826020860161094e565b91505092915050565b6000602082840312156109d4576109d361086e565b5b600082013567ffffffffffffffff8111156109f2576109f1610873565b5b6109fe84828501610990565b91505092915050565b6000819050919050565b610a1a81610a07565b8114610a2557600080fd5b50565b600081359050610a3781610a11565b92915050565b600060208284031215610a5357610a5261086e565b5b6000610a6184828501610a28565b91505092915050565b610a7381610a07565b82525050565b6000602082019050610a8e6000830184610a6a565b92915050565b600073ffffffffffffffffffffffffffffffffffffffff82169050919050565b6000610abf82610a94565b9050919050565b610acf81610ab4565b8114610ada57600080fd5b50565b600081359050610aec81610ac6565b92915050565b600060208284031215610b0857610b0761086e565b5b6000610b1684828501610add565b91505092915050565b600081519050919050565b600082825260208201905092915050565b6000819050602082019050919050565b610b5481610a07565b82525050565b610b6381610ab4565b82525050565b600081519050919050565b600082825260208201905092915050565b60005b83811015610ba3578082015181840152602081019050610b88565b60008484015250505050565b6000610bba82610b69565b610bc48185610b74565b9350610bd4818560208601610b85565b610bdd81610882565b840191505092915050565b60008115159050919050565b610bfd81610be8565b82525050565b600060a083016000830151610c1b6000860182610b4b565b506020830151610c2e6020860182610b5a565b5060408301518482036040860152610c468282610baf565b9150506060830151610c5b6060860182610b4b565b506080830151610c6e6080860182610bf4565b508091505092915050565b6000610c858383610c03565b905092915050565b6000602082019050919050565b6000610ca582610b1f565b610caf8185610b2a565b935083602082028501610cc185610b3b565b8060005b85811015610cfd5784840389528151610cde8582610c79565b9450610ce983610c8d565b925060208a01995050600181019050610cc5565b50829750879550505050505092915050565b60006020820190508181036000830152610d298184610c9a565b905092915050565b7f4e487b7100000000000000000000000000000000000000000000000000000000600052601160045260246000fd5b6000610d6b82610a07565b9150610d7683610a07565b9250828201905080821115610d8e57610d8d610d31565b5b92915050565b7f4e487b7100000000000000000000000000000000000000000000000000000000600052602260045260246000fd5b60006002820490506001821680610ddb57607f821691505b602082108103610dee57610ded610d94565b5b50919050565b60008190508160005260206000209050919050565b60006020601f8301049050919050565b600082821b905092915050565b600060088302610e567fffffffffffffffffffffffffffffffffffffffffffffffffffffffffffffffff82610e19565b610e608683610e19565b95508019841693508086168417925050509392505050565b6000819050919050565b6000610e9d610e98610e9384610a07565b610e78565b610a07565b9050919050565b6000819050919050565b610eb783610e82565b610ecb610ec382610ea4565b848454610e26565b825550505050565b600090565b610ee0610ed3565b610eeb818484610eae565b505050565b5b81811015610f0f57610f04600082610ed8565b600181019050610ef1565b5050565b601f821115610f5457610f2581610df4565b610f2e84610e09565b81016020851015610f3d578190505b610f51610f4985610e09565b830182610ef0565b50505b505050565b600082821c905092915050565b6000610f7760001984600802610f59565b1980831691505092915050565b6000610f908383610f66565b9150826002028217905092915050565b610fa982610b69565b67ffffffffffffffff811115610fc257610fc1610893565b5b610fcc8254610dc3565b610fd7828285610f13565b600060209050601f83116001811461100a5760008415610ff8578287015190505b6110028582610f84565b86555061106a565b601f19841661101886610df4565b60005b828110156110405784890151825560018201915060208501945060208101905061101b565b8683101561105d5784890151611059601f891682610f66565b8355505b6001600288020188555050505b505050505050565b7f4e487b7100000000000000000000000000000000000000000000000000000000600052601260045260246000fd5b60006110ac82610a07565b91506110b783610a07565b9250826110c7576110c6611072565b5b828206905092915050565b600082825260208201905092915050565b7f547279696e6720746f207769746864726177206d6f7265206d6f6e657920746860008201527f616e207468657920636f6e7472616374206861732e0000000000000000000000602082015250565b600061113f6035836110d2565b915061114a826110e3565b604082019050919050565b6000602082019050818103600083015261116e81611132565b9050919050565b600081905092915050565b50565b6000611190600083611175565b915061119b82611180565b600082019050919050565b60006111b182611183565b9150819050919050565b7f4661696c656420746f207769746864726177206d6f6e65792066726f6d20636f60008201527f6e74726163742e00000000000000000000000000000000000000000000000000602082015250565b60006112176027836110d2565b9150611222826111bb565b604082019050919050565b600060208201905081810360008301526112468161120a565b9050919050565b600061125882610b69565b61126281856110d2565b9350611272818560208601610b85565b61127b81610882565b840191505092915050565b61128f81610be8565b82525050565b60006060820190506112aa6000830186610a6a565b81810360208301526112bc818561124d565b90506112cb6040830184611286565b949350505050565b60006112de82610a07565b91506112e983610a07565b925082820390508181111561130157611300610d31565b5b92915050565b7f4e487b7100000000000000000000000000000000000000000000000000000000600052603260045260246000fd5b7f596f752063616e20646f6e6520697420666f7220796f7572206f776e2074617360008201527f6b21000000000000000000000000000000000000000000000000000000000000602082015250565b60006113926022836110d2565b915061139d82611336565b604082019050919050565b600060208201905081810360008301526113c181611385565b9050919050565b600060208201905081810360008301526113e2818461124d565b905092915050565b6113f381610ab4565b82525050565b60006040820190508181036000830152611413818561124d565b905061142260208301846113ea565b939250505056fea26469706673582212204caa5dbbef3c33f584e4b179e7eee790eab23e825e36c312548421f88066778164736f6c63430008110033",
  "linkReferences": {},
  "deployedLinkReferences": {}
}