{
  "_format": "hh-sol-artifact-1",
  "contractName": "WavePortal",
  "sourceName": "contracts/WavePortal.sol",
  "abi": [
    {
      "inputs": [],
      "stateMutability": "payable",
      "type": "constructor"
    },
    {
      "anonymous": false,
      "inputs": [
        {
          "indexed": false,
          "internalType": "uint256",
          "name": "id",
          "type": "uint256"
        }
      ],
      "name": "DoneIt",
      "type": "event"
    },
    {
      "anonymous": false,
      "inputs": [
        {
          "indexed": false,
          "internalType": "uint256",
          "name": "id",
          "type": "uint256"
        },
        {
          "indexed": true,
          "internalType": "address",
          "name": "from",
          "type": "address"
        },
        {
          "indexed": false,
          "internalType": "uint256",
          "name": "timestamp",
          "type": "uint256"
        },
        {
          "indexed": false,
          "internalType": "string",
          "name": "message",
          "type": "string"
        },
        {
          "indexed": true,
          "internalType": "bool",
          "name": "done",
          "type": "bool"
        }
      ],
      "name": "NewWave",
      "type": "event"
    },
    {
      "inputs": [
        {
          "internalType": "uint256",
          "name": "id",
          "type": "uint256"
        }
      ],
      "name": "doneIt",
      "outputs": [],
      "stateMutability": "nonpayable",
      "type": "function"
    },
    {
      "inputs": [],
      "name": "getAllWaves",
      "outputs": [
        {
          "components": [
            {
              "internalType": "uint256",
              "name": "id",
              "type": "uint256"
            },
            {
              "internalType": "address",
              "name": "waver",
              "type": "address"
            },
            {
              "internalType": "string",
              "name": "message",
              "type": "string"
            },
            {
              "internalType": "uint256",
              "name": "timestamp",
              "type": "uint256"
            },
            {
              "internalType": "bool",
              "name": "done",
              "type": "bool"
            }
          ],
          "internalType": "struct WavePortal.Wave[]",
          "name": "",
          "type": "tuple[]"
        }
      ],
      "stateMutability": "view",
      "type": "function"
    },
    {
      "inputs": [],
      "name": "getTotalWaves",
      "outputs": [
        {
          "internalType": "uint256",
          "name": "",
          "type": "uint256"
        }
      ],
      "stateMutability": "view",
      "type": "function"
    },
    {
      "inputs": [
        {
          "internalType": "address",
          "name": "",
          "type": "address"
        }
      ],
      "name": "lastWavedAt",
      "outputs": [
        {
          "internalType": "uint256",
          "name": "",
          "type": "uint256"
        }
      ],
      "stateMutability": "view",
      "type": "function"
    },
    {
      "inputs": [
        {
          "internalType": "string",
          "name": "_message",
          "type": "string"
        }
      ],
      "name": "wave",
      "outputs": [],
      "stateMutability": "nonpayable",
      "type": "function"
    }
  ],
  "bytecode": "0x60806040526200004f6040518060400160405280601981526020017f57652068617665206265656e20636f6e737472756374656421000000000000008152506200007760201b620007421760201c565b606444426200005f91906200017c565b6200006b9190620001e6565b600181905550620002dc565b62000117816040516024016200008e9190620002b8565b6040516020818303038152906040527f41304fac000000000000000000000000000000000000000000000000000000007bffffffffffffffffffffffffffffffffffffffffffffffffffffffff19166020820180517bffffffffffffffffffffffffffffffffffffffffffffffffffffffff83818316178352505050506200011a60201b60201c565b50565b60008151905060006a636f6e736f6c652e6c6f679050602083016000808483855afa5050505050565b6000819050919050565b7f4e487b7100000000000000000000000000000000000000000000000000000000600052601160045260246000fd5b6000620001898262000143565b9150620001968362000143565b9250828201905080821115620001b157620001b06200014d565b5b92915050565b7f4e487b7100000000000000000000000000000000000000000000000000000000600052601260045260246000fd5b6000620001f38262000143565b9150620002008362000143565b925082620002135762000212620001b7565b5b828206905092915050565b600081519050919050565b600082825260208201905092915050565b60005b838110156200025a5780820151818401526020810190506200023d565b60008484015250505050565b6000601f19601f8301169050919050565b600062000284826200021e565b62000290818562000229565b9350620002a28185602086016200023a565b620002ad8162000266565b840191505092915050565b60006020820190508181036000830152620002d4818462000277565b905092915050565b61148c80620002ec6000396000f3fe608060405234801561001057600080fd5b50600436106100575760003560e01c8063449d46c01461005c5780636c953921146100785780639a2cdc0814610094578063a42a4663146100b2578063bd43a908146100e2575b600080fd5b610076600480360381019061007191906109fa565b610100565b005b610092600480360381019061008d9190610a79565b610468565b005b61009c6105ab565b6040516100a99190610ab5565b60405180910390f35b6100cc60048036038101906100c79190610b2e565b6105b4565b6040516100d99190610ab5565b60405180910390f35b6100ea6105cc565b6040516100f79190610d4b565b60405180910390f35b42600360003373ffffffffffffffffffffffffffffffffffffffff1673ffffffffffffffffffffffffffffffffffffffff1681526020019081526020016000208190555060016000808282546101569190610d9c565b9250508190555061019c6040518060400160405280600d81526020017f2573206861732077617665642100000000000000000000000000000000000000815250336107db565b60026040518060a0016040528060005481526020013373ffffffffffffffffffffffffffffffffffffffff1681526020018381526020014281526020016000151581525090806001815401808255809150506001900390600052602060002090600502016000909190919091506000820151816000015560208201518160010160006101000a81548173ffffffffffffffffffffffffffffffffffffffff021916908373ffffffffffffffffffffffffffffffffffffffff160217905550604082015181600201908161026f9190610fdc565b506060820151816003015560808201518160040160006101000a81548160ff0219169083151502179055505050606460015442446102ad9190610d9c565b6102b79190610d9c565b6102c191906110dd565b60018190555060326001541161040d576103106040518060400160405280600781526020017f257320776f6e2100000000000000000000000000000000000000000000000000815250336107db565b6000655af3107a400090504781111561035e576040517f08c379a000000000000000000000000000000000000000000000000000000000815260040161035590611191565b60405180910390fd5b60003373ffffffffffffffffffffffffffffffffffffffff1682604051610384906111e2565b60006040518083038185875af1925050503d80600081146103c1576040519150601f19603f3d011682016040523d82523d6000602084013e6103c6565b606091505b505090508061040a576040517f08c379a000000000000000000000000000000000000000000000000000000000815260040161040190611269565b60405180910390fd5b50505b600015153373ffffffffffffffffffffffffffffffffffffffff167fdfaa5c87de3451f44c2a8d711ce709bd64849eb53847f032e3a4d21898291e36600054428560405161045d939291906112c2565b60405180910390a350565b60026001826104779190611300565b8154811061048857610487611334565b5b906000526020600020906005020160010160009054906101000a900473ffffffffffffffffffffffffffffffffffffffff1673ffffffffffffffffffffffffffffffffffffffff163373ffffffffffffffffffffffffffffffffffffffff1614610527576040517f08c379a000000000000000000000000000000000000000000000000000000000815260040161051e906113d5565b60405180910390fd5b600160026001836105389190611300565b8154811061054957610548611334565b5b906000526020600020906005020160040160006101000a81548160ff0219169083151502179055507fbacbcd0f3b083a3f4433a8f39e15fd6f38eadd2f4bbbbb844bb1261230627058816040516105a09190610ab5565b60405180910390a150565b60008054905090565b60036020528060005260406000206000915090505481565b60606002805480602002602001604051908101604052809291908181526020016000905b8282101561073957838290600052602060002090600502016040518060a0016040529081600082015481526020016001820160009054906101000a900473ffffffffffffffffffffffffffffffffffffffff1673ffffffffffffffffffffffffffffffffffffffff1673ffffffffffffffffffffffffffffffffffffffff16815260200160028201805461068390610dff565b80601f01602080910402602001604051908101604052809291908181526020018280546106af90610dff565b80156106fc5780601f106106d1576101008083540402835291602001916106fc565b820191906000526020600020905b8154815290600101906020018083116106df57829003601f168201915b50505050508152602001600382015481526020016004820160009054906101000a900460ff161515151581525050815260200190600101906105f0565b50505050905090565b6107d88160405160240161075691906113f5565b6040516020818303038152906040527f41304fac000000000000000000000000000000000000000000000000000000007bffffffffffffffffffffffffffffffffffffffffffffffffffffffff19166020820180517bffffffffffffffffffffffffffffffffffffffffffffffffffffffff8381831617835250505050610877565b50565b61087382826040516024016107f1929190611426565b6040516020818303038152906040527f319af333000000000000000000000000000000000000000000000000000000007bffffffffffffffffffffffffffffffffffffffffffffffffffffffff19166020820180517bffffffffffffffffffffffffffffffffffffffffffffffffffffffff8381831617835250505050610877565b5050565b60008151905060006a636f6e736f6c652e6c6f679050602083016000808483855afa5050505050565b6000604051905090565b600080fd5b600080fd5b600080fd5b600080fd5b6000601f19601f8301169050919050565b7f4e487b7100000000000000000000000000000000000000000000000000000000600052604160045260246000fd5b610907826108be565b810181811067ffffffffffffffff82111715610926576109256108cf565b5b80604052505050565b60006109396108a0565b905061094582826108fe565b919050565b600067ffffffffffffffff821115610965576109646108cf565b5b61096e826108be565b9050602081019050919050565b82818337600083830152505050565b600061099d6109988461094a565b61092f565b9050828152602081018484840111156109b9576109b86108b9565b5b6109c484828561097b565b509392505050565b600082601f8301126109e1576109e06108b4565b5b81356109f184826020860161098a565b91505092915050565b600060208284031215610a1057610a0f6108aa565b5b600082013567ffffffffffffffff811115610a2e57610a2d6108af565b5b610a3a848285016109cc565b91505092915050565b6000819050919050565b610a5681610a43565b8114610a6157600080fd5b50565b600081359050610a7381610a4d565b92915050565b600060208284031215610a8f57610a8e6108aa565b5b6000610a9d84828501610a64565b91505092915050565b610aaf81610a43565b82525050565b6000602082019050610aca6000830184610aa6565b92915050565b600073ffffffffffffffffffffffffffffffffffffffff82169050919050565b6000610afb82610ad0565b9050919050565b610b0b81610af0565b8114610b1657600080fd5b50565b600081359050610b2881610b02565b92915050565b600060208284031215610b4457610b436108aa565b5b6000610b5284828501610b19565b91505092915050565b600081519050919050565b600082825260208201905092915050565b6000819050602082019050919050565b610b9081610a43565b82525050565b610b9f81610af0565b82525050565b600081519050919050565b600082825260208201905092915050565b60005b83811015610bdf578082015181840152602081019050610bc4565b60008484015250505050565b6000610bf682610ba5565b610c008185610bb0565b9350610c10818560208601610bc1565b610c19816108be565b840191505092915050565b60008115159050919050565b610c3981610c24565b82525050565b600060a083016000830151610c576000860182610b87565b506020830151610c6a6020860182610b96565b5060408301518482036040860152610c828282610beb565b9150506060830151610c976060860182610b87565b506080830151610caa6080860182610c30565b508091505092915050565b6000610cc18383610c3f565b905092915050565b6000602082019050919050565b6000610ce182610b5b565b610ceb8185610b66565b935083602082028501610cfd85610b77565b8060005b85811015610d395784840389528151610d1a8582610cb5565b9450610d2583610cc9565b925060208a01995050600181019050610d01565b50829750879550505050505092915050565b60006020820190508181036000830152610d658184610cd6565b905092915050565b7f4e487b7100000000000000000000000000000000000000000000000000000000600052601160045260246000fd5b6000610da782610a43565b9150610db283610a43565b9250828201905080821115610dca57610dc9610d6d565b5b92915050565b7f4e487b7100000000000000000000000000000000000000000000000000000000600052602260045260246000fd5b60006002820490506001821680610e1757607f821691505b602082108103610e2a57610e29610dd0565b5b50919050565b60008190508160005260206000209050919050565b60006020601f8301049050919050565b600082821b905092915050565b600060088302610e927fffffffffffffffffffffffffffffffffffffffffffffffffffffffffffffffff82610e55565b610e9c8683610e55565b95508019841693508086168417925050509392505050565b6000819050919050565b6000610ed9610ed4610ecf84610a43565b610eb4565b610a43565b9050919050565b6000819050919050565b610ef383610ebe565b610f07610eff82610ee0565b848454610e62565b825550505050565b600090565b610f1c610f0f565b610f27818484610eea565b505050565b5b81811015610f4b57610f40600082610f14565b600181019050610f2d565b5050565b601f821115610f9057610f6181610e30565b610f6a84610e45565b81016020851015610f79578190505b610f8d610f8585610e45565b830182610f2c565b50505b505050565b600082821c905092915050565b6000610fb360001984600802610f95565b1980831691505092915050565b6000610fcc8383610fa2565b9150826002028217905092915050565b610fe582610ba5565b67ffffffffffffffff811115610ffe57610ffd6108cf565b5b6110088254610dff565b611013828285610f4f565b600060209050601f8311600181146110465760008415611034578287015190505b61103e8582610fc0565b8655506110a6565b601f19841661105486610e30565b60005b8281101561107c57848901518255600182019150602085019450602081019050611057565b868310156110995784890151611095601f891682610fa2565b8355505b6001600288020188555050505b505050505050565b7f4e487b7100000000000000000000000000000000000000000000000000000000600052601260045260246000fd5b60006110e882610a43565b91506110f383610a43565b925082611103576111026110ae565b5b828206905092915050565b600082825260208201905092915050565b7f547279696e6720746f207769746864726177206d6f7265206d6f6e657920746860008201527f616e207468657920636f6e7472616374206861732e0000000000000000000000602082015250565b600061117b60358361110e565b91506111868261111f565b604082019050919050565b600060208201905081810360008301526111aa8161116e565b9050919050565b600081905092915050565b50565b60006111cc6000836111b1565b91506111d7826111bc565b600082019050919050565b60006111ed826111bf565b9150819050919050565b7f4661696c656420746f207769746864726177206d6f6e65792066726f6d20636f60008201527f6e74726163742e00000000000000000000000000000000000000000000000000602082015250565b600061125360278361110e565b915061125e826111f7565b604082019050919050565b6000602082019050818103600083015261128281611246565b9050919050565b600061129482610ba5565b61129e818561110e565b93506112ae818560208601610bc1565b6112b7816108be565b840191505092915050565b60006060820190506112d76000830186610aa6565b6112e46020830185610aa6565b81810360408301526112f68184611289565b9050949350505050565b600061130b82610a43565b915061131683610a43565b925082820390508181111561132e5761132d610d6d565b5b92915050565b7f4e487b7100000000000000000000000000000000000000000000000000000000600052603260045260246000fd5b7f596f752063616e20646f6e6520697420666f7220796f7572206f776e2074617360008201527f6b21000000000000000000000000000000000000000000000000000000000000602082015250565b60006113bf60228361110e565b91506113ca82611363565b604082019050919050565b600060208201905081810360008301526113ee816113b2565b9050919050565b6000602082019050818103600083015261140f8184611289565b905092915050565b61142081610af0565b82525050565b600060408201905081810360008301526114408185611289565b905061144f6020830184611417565b939250505056fea2646970667358221220b514988d538fe3c31887e8a1b87542fae1457422e1c8173e384e138dcb56a84a64736f6c63430008110033",
  "linkReferences": {},
  "deployedLinkReferences": {}
}